:020000040800F2
:1000000088060020010100082501000827010008DA
:10001000290100082B0100082D0100080000000044
:100020000000000000000000000000002F01000898
:10003000310100080000000033010008810B0008B6
:1000400037010008370100083701000837010008B0
:1000500037010008370100083701000837010008A0
:100060003701000837010008370100083701000890
:100070003701000837010008370100083701000880
:100080003701000837010008370100083701000870
:100090003701000837010008370100083701000860
:1000A0003701000827180008370100088D160008DE
:1000B00041180008651A0008151C000837010008DF
:1000C0003701000837010008370100083701000830
:1000D0003701000837010008370100083701000820
:1000E000370100083701000837010008DFF80CD09D
:1000F00002F036FA004800473D2600088806002036
:100100000D488047DFF83400016841F4E0210160C8
:10011000BFF34F8FDFF82800DFF8281001600A488E
:1001200000477047FEE7FEE7FEE7FEE7FEE7FEE773
:10013000FEE7FEE7FEE7FEE72301000824ED00E00E
:100140000CED00E00003FA05ED0000082DE9F34F87
:1001500089B00746FE48874205D1FE48806940F4D1
:100160000070FC498861FC48874205D1F9488069E4
:1001700040F48060F7498861002600F08EFB08900B
:10018000089802F098F805900A9901F093FE8346CA
:1001900002F0D0F8F14AF24BCDE9060101F0A1FFDF
:1001A000044602F00BF98146484602F0C3F80446C3
:1001B0000022EC4B02F0D2F803D800BF4FF07F587A
:1001C00050E0484602F0B6F804460022E64B02F042
:1001D000C5F803D80126DFF8948343E0484602F0CF
:1001E000A9F804460022E24B02F0B8F803D8022630
:1001F000DFF8808336E0484602F09CF8044600228F
:10020000DD4B02F0ABF803D80326DFF8708329E05A
:10021000484602F08FF804460022D94B02F09EF8BF
:1002200003D80426DFF85C831CE0484602F082F81D
:1002300004460022D44B02F091F803D80526DFF8DB
:100240004C830FE0484602F075F804460022D04B7C
:1002500002F084F803D80626DFF8388302E0072688
:10026000DFF8348346EAC60040EA861040EA4620BA
:1002700040EA063040EAC63040EA864040EA46504E
:10028000F86046EAC60040EA861040EA462040EAA6
:10029000063040EAC63040EA864040EA465040EA2E
:1002A000066040EAC6603861F86A20F47000F862BF
:1002B000089802F000F8044602F03CF8CDE9040189
:1002C000404602F037F80022B44BCDE9000101F0BE
:1002D00061FE04460022B24B01F003FFCDE90201AA
:1002E000DDE9042301F06FFFCDE9060102F066F8B5
:1002F0008246B86840F00100B86050460BB0BDE8D7
:10030000F08F2DE9F84F05468A469148854205D180
:100310009048806940F400708E4988618E4885421B
:1003200005D18C48806940F480608A498861002446
:1003300000F0B3FA834600F0AAFA8046B8FBFBF956
:100340004FEA4A00B0FBF9F7032F02D800BF03269B
:1003500020E00F2F02D801240F261BE01B2F02D80C
:1003600002241B2616E0392F02D80324392611E077
:10037000532F02D8042453260CE06F2F02D80524F3
:100380006F2607E08F2F02D806248F2602E007246D
:1003900040F2DF1644EAC40040EA841040EA4420F8
:1003A00040EA043040EAC43040EA844040EA445025
:1003B000E86044EAC40040EA841040EA442040EA8D
:1003C000043040EAC43040EA844040EA445040EA05
:1003D000046040EAC4602861E86A20F47000E862C2
:1003E00006F1190000FB09F040080090A86840F0F1
:1003F0000100A8600098BDE8F88F426B22F01F0250
:100400004263426B0A4342637047F0B505461346A8
:1004100000264F4F34373E603F1F3E603F1F3E6017
:100420000F2943DC002036E01A5C05280BDC484E1F
:100430003436366800EB800702FA07F73E43444F34
:1004400034373E6026E00B2811DC062690FBF6F7D9
:1004500006FB1706F4B23E4E3036366804EB8407CE
:1004600002FA07F73E433A4F30373E6012E00F285A
:1004700010DC062690FBF6F706FB1706F4B2344EA6
:100480002C36366804EB840702FA07F73E43304FF8
:100490002C373E60401C8842C6DB2D4E2C36376818
:1004A0004E1E47EA06562A4F2C373E60F0BD2DE916
:1004B000F04706460F469146B06840F48010B060A1
:1004C000B06820F46020B060B06807F0070140EA2F
:1004D0004140B06017B9334D012416E0012F02D11D
:1004E000304D022411E0022F02D12E4D03240CE0E6
:1004F000032F03D14FF08045022406E0052F02D1DF
:10050000294D042401E0FF24274DFF2C0AD04A4640
:100510002146284600F05CFE8046404608EBD0713C
:1005200049102987BDE8F0872DE9F04706460F46B8
:100530009146B06840F48010B060B06820F460204C
:10054000B060B06807F0070140EA4140B0602DE0BC
:100550000024014000100240002801408DEDB5A0AC
:10056000F7C6B03E0000F83F00001E400000F0401B
:1005700000002B400000584100803C400000E44156
:1005800000C044400000264200C04B4000005E42D4
:1005900000E0514000008F4200806F43000029407E
:1005A00080842E41002C01400008004017B9644DA2
:1005B000012416E0012F02D1614D022411E0022F27
:1005C00002D15F4D03240CE0032F03D14FF080458F
:1005D000022406E0052F02D15A4D042401E0FF2435
:1005E000584DFF2C0AD04A462146284600F091FD7E
:1005F0008046404608EBD07149102987BDE8F08756
:1006000010B5436843F0200343604F4B984201D13B
:100610004E4B1A604E4B984201D14E4B1A600B075D
:100620001C0E4D4B1C704FF480234C4C236010BDAE
:1006300010B54548006800F00200022808D1434880
:10064000006880474048006820F002003E4908608A
:100650003F48006800F00200022808D13D480068C9
:1006600080473B48006820F002003949086010BD0F
:100670003B4A926842F00202394B9A60394A116053
:100680000207130E384A13704FF40062334B1A609E
:10069000704710B53348006880473148406840F0E3
:1006A00002002F49486010BD304A526942F00102F1
:1006B0002E4B5A611A46926942F400729A61224A9C
:1006C0000832126842F480721F4B08331A601E4AC7
:1006D0004C32234B1A611A46516100229A601A4625
:1006E000926842F4565200F0010342EA43121C4B56
:1006F0009A6070471A49896821F00101184A91608F
:100700001146C860896841F001019160704700BFDF
:10071000016811F0020FFBD00B49096821F00201BA
:10072000094A1160704700BF0D48006810F0020FC1
:10073000FAD00B48406840F0020009494860704711
:10074000002C01400008004000240140240000204B
:10075000002801402800002012E400E000E100E051
:10076000000002402C0000200BE400E000100240DA
:100770000146012901D1002231E0B1F5807F01DD80
:10078000012200E00022D21D802901DD012300E0CA
:1007900000231A44402901DD012300E000231A440C
:1007A000102901DD012300E000231A44082901DD9E
:1007B000012300E000231A44042901DD012300E0A5
:1007C00000231A44022901DD012300E000231A441A
:1007D000012901DD012300E000231A441201104623
:1007E000702800D10020704710B583202C49086084
:1007F0000020486088602B4848600120FFF7B8FF60
:10080000274949680843264948600020264908606E
:100810000846006840F0020008602148006840F483
:1008200080301F49086000BF1D48006810F4003F79
:10083000FAD01B48006840F080701949086000BF7A
:100840001748006810F0007FFAD01548406820F083
:100850000300134948600846406840F002004860C1
:100860000846406840F4800048600F48006840F047
:1008700010000D49086010BD01460C48814202D0AD
:100880000B48814201D10B4870470A48FCE70948F0
:10089000704709487047074870470848704700008C
:1008A0000010024000841D0000200240002C014086
:1008B0000034014000A24A0400512502001BB70089
:1008C0002DE9F0410446584FBC4207D1574FBF694C
:1008D00047F00407DFF854C1CCF81870544FBC42FD
:1008E00007D1524FBF6947F00807DFF840C1CCF885
:1008F0001870504FBC4207D14C4FBF6947F01007EA
:10090000DFF828C1CCF818704B4FBC4207D1474FD5
:10091000BF6947F02007DFF814C1CCF81870474FC3
:10092000BC4207D1414FBF6947F04007DFF8FCC028
:10093000CCF8187000200F2900DD0120692A01D0B1
:10094000492A02D1032B00D10120032B00DD012015
:10095000692A06D0492A04D06F2A02D04F2A00D033
:100960000120692A01D0492A00D100266F2A01D02E
:100970004F2A00D10126082928DA27684FEA810C7E
:100980000CF1020C4FF0030808FA0CF827EA0807EC
:10099000276027684FEA810C0CF1020C03FA0CFC6B
:1009A00047EA0C07276027684FEA81084FF0030CDD
:1009B0000CFA08FC27EA0C07276027684FEA810C2D
:1009C00006FA0CFC47EA0C0727602AE0A1F10807A9
:1009D000FDB267684FEA850C0CF1020C4FF003087A
:1009E00008FA0CF827EA0807676067684FEA850C81
:1009F0000CF1020C03FA0CFC47EA0C07676067680D
:100A00004FEA85084FF0030C0CFA08FC27EA0C07A4
:100A1000676067684FEA850C06FA0CFC47EA0C072A
:100A20006760BDE8F081000000080140001002404E
:100A3000000C01400010014000140140001801406A
:100A4000524A11600207130E514AD37270472DE9C2
:100A5000FE4F8146FFF71BFF044601F02CFC01907E
:100A60004846019901F026FA834601F063FC0746E7
:100A70000022484B01F0A7FB044601F09FFC824690
:100A8000504601F043FC0646304601F014FC00904D
:100A9000019901F041FA834601F04CFC074600221F
:100AA0003C4B01F01EFB044601F088FC02904FF025
:100AB000E020006940F004004FF0E021086150465A
:100AC00001F038FC04464FF06042334B01F05EFC0D
:100AD0002ED84FF0E020006920F004004FF0E02114
:100AE00008614846019901F0E5F9834601F022FCCE
:100AF00007460022294B01F066FB044601F05EFC2C
:100B00008246504601F002FC0646304601F0D3FB17
:100B10000090019901F000FA834601F00BFC0446B5
:100B200000221E4B01F0DDFA074601F047FC02905F
:100B3000504601F0FFFB04464FF06042164B01F0B7
:100B400025FC01D8002002904FF0E0204661029879
:100B5000BDE8FE8F4FF0E021096941F004014FF03C
:100B6000E02211616FF07F41884205D31146096987
:100B700021F004011161C0084FF0E0214861704785
:100B800010B502480068804710BD0000300000200A
:100B900018ED00E080842E41FFFF6F4180845E41AC
:100BA0002DE9F34F8FB00646F948864205D1F94842
:100BB000806940F40060F7498861B6F1804F05D143
:100BC000F448C06940F00100F249C861F248864229
:100BD00005D1F048C06940F00200EE49C861EF4815
:100BE000864205D1EB48C06940F00400E949C8617C
:100BF0003046FFF741FE0E900E9801F05CFB0A9024
:100C0000109901F057F90B9001F094FB0022E44B8E
:100C1000CDE90C0101F0D7FA044601F0CFFB824682
:100C2000504601F087FB0022DE4BCDE90C0101F0BC
:100C3000CAFA044601F0C2FB8146484601F066FB51
:100C4000401C87B2384601F036FB04462146504628
:100C500001F062F98046781E3085404601F056FB6F
:100C6000401EB085404601F051FB401EB0840E98F6
:100C700001F026FBCDE90A01308D01F01CFB039049
:100C800001F058FB04460022C74B01F083F9CDE97F
:100C90000601B08D01F00FFB019001F04BFB044603
:100CA0000022C14B01F076F90022BD4BCDE90201D3
:100CB00001F017FACDE90401DDE9062301F011FA8C
:100CC000CDE90801DDE90A2301F07DFACDE90C0147
:100CD00001F074FB834611203080584611B0BDE806
:100CE000F08F2DE9F04704460D46A948844205D10E
:100CF000A848806940F40060A6498861B4F1804F3B
:100D000005D1A448C06940F00100A249C861A248C9
:100D1000844205D19F48C06940F002009D49C861E6
:100D20009E48844205D19B48C06940F0040099491F
:100D3000C861FFF7ACFD81462046FFF79DFDB9FB7A
:100D4000F0F8B5FBF8F52E0C761CB5FBF6F7701E27
:100D50002085781EA085A08411202080BDE8F08722
:100D600010B58B4B984205D18A4B9B6943F40063C5
:100D7000884CA361B0F1804F05D1864BDB6943F00D
:100D80000103844CE361844B984205D1814BDB69BC
:100D900043F002037F4CE361804B984205D17D4BC9
:100DA000DB6943F004037B4CE361838943F0010377
:100DB00083810F2900DD0F21754B98420DD17B4BAC
:100DC0001A600B071C0E7A4B1C707A4B1B6843F0A1
:100DD00000734FF0E024C4F80031B0F1804F0DD122
:100DE000754B1A600B071C0E744B1C70714B1B6803
:100DF00043F080534FF0E024C4F80031664B984232
:100E00000DD16F4B1A600B071C0E6E4B1C70694B9B
:100E10001B6843F000534FF0E024C4F800315F4BEF
:100E200098420DD1684B1A600B071C0E674B1C7063
:100E3000604B1B6843F080434FF0E024C4F800315E
:100E400010BD70B5524CA04205D1524CA46944F477
:100E50000064504DAC61B0F1804F05D14D4CE46958
:100E600044F001044B4DEC614B4CA04205D1494C80
:100E7000E46944F00204474DEC61484CA04205D1BE
:100E8000444CE46944F00404424DEC610F2A00DD57
:100E90000F223F4CA0420BD11407250E4C4C25705D
:100EA000444C246844F000644FF0E025C5F800414C
:100EB000B0F1804F0BD11407250E404C25703D4CEE
:100EC000246844F080544FF0E025C5F80041324CCE
:100ED000A0420BD11407250E3A4C2570354C2468DE
:100EE00044F000544FF0E025C5F800412B4CA042DF
:100EF0000BD11407250E354C25702E4C246844F078
:100F000080444FF0E025C5F80041214CA04221D19A
:100F1000012906D002290AD003290ED0042918D1AC
:100F200011E02C4C236001242B4D2C7011E02B4C34
:100F3000236001242A4D2C700BE02A4C23600124ED
:100F4000294D2C7005E0294C23600124284D2C707C
:100F500000BFACE0B0F1804F5FD1012906D002297B
:100F60000AD003290ED0042956D14FE0214C23602A
:100F70000124214D2C704FE0204C23600124204D92
:100F80002C7049E01F4C236001241F4D2C7043E05E
:100F9000002C014000100240000400400008004006
:100FA00080842E410000F0400000F03F340000201B
:100FB00019E400E000E100E0380000201CE400E05B
:100FC0003C0000201DE400E0400000201EE400E0A2
:100FD0001BE400E0540000204400002058000020E2
:100FE000450000205C00002046000020600000203A
:100FF0004700002064000020480000206800002016
:10100000490000206C0000204A000020FE4C2360B4
:101010000124FE4D2C7000BF49E0FD4CA04221D1BF
:10102000012906D002290AD003290ED0042918D19B
:1010300011E0F84C23600124F74D2C7011E0F74CBF
:1010400023600124F64D2C700BE0F64C2360012444
:10105000F54D2C7005E0F54C23600124F44D2C7007
:1010600000BF24E0F34CA04221D1012906D002297F
:101070000AD003290ED0042918D111E0EE4C2360C8
:101080000124EE4D2C7011E0ED4C23600124ED4D58
:101090002C700BE0EC4C23600124EC4D2C7005E02F
:1010A000EB4C23600124EB4D2C7000BF00BF0129E5
:1010B00001D0022911D1058B4C1E042606EBC40673
:1010C0000724B440A5430583058B4C1E042606EB7C
:1010D000C4060124B44025430583032901D0042913
:1010E00011D1858BCC1E042606EBC4060724B44020
:1010F000A5438583858BCC1E042606EBC4060124FC
:10110000B44025438583848901258D402C43848107
:1011100070BD70B504460D46164631462046FFF7B1
:10112000E0FD012D01D0022D18D1208B691ECA00CF
:101130000321914088432083218B681E042202EB07
:10114000C0020720904081432183218B681E042226
:1011500002EBC0020620904001432183032D01D001
:10116000042D18D1A08BE91ECA00032191408843A9
:10117000A083A18BE81E042202EBC002072090404E
:101180008143A183A18BE81E042202EBC00206204A
:1011900090400143A183218C681E012202EB800252
:1011A0000120904081432184208C691E8A00012106
:1011B000914008432084A848844205D1B4F84400F3
:1011C00040F40040A4F84400A08D401C80B270BDE3
:1011D0002DE9F05F804689469246504601F0AAF814
:1011E000064632460B4600209C4900F0ECFF0446C0
:1011F00001F0E4F8834659464046FFF7D1FCB9F1C7
:10120000010F02D0B9F1020F21D1B8F81800A9F1ED
:101210000101CA00032191408843A8F81800B8F8DA
:101220001810A9F10100042202EBC002072090402F
:101230008143A8F81810B8F81810A9F10100042289
:1012400002EBC002062090400143A8F81810B9F143
:10125000030F02D0B9F1040F21D1B8F81C00A9F195
:101260000301CA00032191408843A8F81C00B8F884
:101270001C10A9F10300042202EBC00207209040D9
:101280008143A8F81C10B8F81C10A9F1030004222F
:1012900002EBC002062090400143A8F81C10B8F8E9
:1012A0002010A9F10100012202EB800201209040F0
:1012B0008143A8F82010B8F82000A9F101018A00A4
:1012C000012191400843A8F820006348804505D1DA
:1012D000B8F8440040F40040A8F84400B8F82C00E6
:1012E000401C80B2BDE8F09F5D49896941F400610E
:1012F0005B4A9161584920310988421E9200921C34
:10130000012393401943544A203211801146098821
:10131000421E9200D21C0123934099434E4A203230
:101320001180704710B502464B4B9A4205D14C4B89
:101330009B6943F400634A4CA361B2F1804F05D12D
:10134000474BDB6943F00103454CE361304B9A4264
:1013500005D1434BDB6943F00203414CE361354B5C
:101360009A4205D13E4BDB6943F004033C4CE361F8
:101370000020138923F007031381012903D00229D8
:1013800001D0032903D113890B43138100E001200D
:10139000138B23F003031383138B43F00103138395
:1013A000138B23F440731383138B43F480731383E1
:1013B000138C23F002031384138C23F02003138473
:1013C000138823F001031380138843F00103138073
:1013D0004FF6FF73938510BD2DE9F04F8FB0044693
:1013E0000D4617469846189E1B48844205D11C4856
:1013F000806940F400601A498861B4F1804F35D1AA
:101400001748C0692EE00000700000204B0000204B
:1014100000040040740000204C00002078000020F0
:101420004D0000207C0000204E00002080000020A5
:101430004F000020000800408400002050000020E1
:1014400088000020510000208C0000205200002065
:101450009000002053000020002C014000408F40ED
:101460000010024040F00100FE49C861FE4884427D
:1014700005D1FC48C06940F00200FA49C861FB4848
:10148000844205D1F748C06940F00400F549C861BD
:101490002046FFF7F1F90020A085404600F00BFF41
:1014A000059000F047FFCDE90801384600F042FF03
:1014B000EF4AF04BCDE9040100F013FECDE906013F
:1014C000DDE9082300F07FFECDE90A0100F076FF98
:1014D00081460E9800F0EFFE49460B9000F0EAFCC2
:1014E0008246504600F026FF0022E34BCDE90A0178
:1014F00000F034FF02D201200C908CE0504600F046
:1015000019FF0022DD4BCDE90A0100F03FFF02D2B6
:1015100001200C907FE0504600F0F8FE401E208530
:10152000012D01D0022D0DD1208B691ECA0003218F
:10153000914088432083208B691ECA00012191407D
:1015400008432083032D01D0042D0DD1A08BE91E6B
:10155000CA00032191408843A083A08BE91ECA00E2
:10156000012191400843A083218C681E012202EBD7
:1015700080020120904081432184208C691E8A00D2
:1015800001219140084320840F2E00DD0F26BC4826
:1015900084420BD13007010EBA480170BA48006886
:1015A00040F000604FF0E021C1F80001B4F1804F3D
:1015B0000BD13007010EB5480170B348006840F008
:1015C00080504FF0E021C1F80001A74884420BD1C0
:1015D0003007010EAE480170AB48006840F0005083
:1015E0004FF0E021C1F80001A04884420BD1300740
:1015F000010EA8480170A448006840F080404FF0F8
:10160000E021C1F80001A0894FF0010101FA05F1C4
:1016100040EA0100A0814FF001002080218D01F1FE
:10162000010000F03FFE059000F084FECDE90801C6
:101630000E9800F040FE019000F07CFECDE9040120
:10164000384600F077FE8A4A8A4BCDE9000100F067
:1016500048FDCDE90201DDE9042300F042FDCDE9BA
:101660000601DDE9082300F0AEFDCDE90A0100F036
:10167000A5FE0D900D9800F030FE1FFA80FB4FF68E
:10168000FF70A08558460FB0BDE8F08F10B57C48BC
:101690001030008800F0020002282BD1784810306A
:1016A000008820F002007649103108807A480078DE
:1016B000012802D1794800688047714820300088AD
:1016C00010F0020F05D16E4834300088744908804C
:1016D00007E06B483430008871490988401A714925
:1016E000088067482030008880F00200644920317B
:1016F000088097E062481030008800F00400042859
:101700002BD15F481030008820F004005C49103174
:10171000088065480078012802D164480068804745
:1017200057482030008810F0200F05D15448383039
:1017300000885B49488007E05148383000885849A4
:101740004988401A574948804D482030008880F029
:1017500020004B492031088064E04948103000885F
:1017600000F0080008282BD145481030008820F0F0
:1017700008004349103108804D480078032802D101
:101780004C48006880473E482030008810F4007FB5
:1017900005D13B483C3000884149888007E0384803
:1017A0003C3000883E498988401A3E498880344848
:1017B0002030008880F4007031492031088031E009
:1017C0002F481030008800F0100010282AD12C4833
:1017D0001030008820F01000294910310880364868
:1017E0000078012802D1354800688047244820301D
:1017F000008810F4005F05D1214840300088284956
:10180000C88007E01E48403000882549C988401A32
:101810002449C8801A482030008880F400501849B4
:101820002031088010BD10B515481030008820F018
:10183000010013491031088021480068804710BD1D
:1018400010B54FF08040008A00F00100012842D11D
:101850008007808900F0010001283CD18007008AC0
:1018600030E000000010024000040040000800408A
:101870008DEDB5A0F7C6B03E0000F03F0000F0408F
:10188000002C01401BE400E000E100E01CE400E06B
:101890001DE400E01EE400E04400002054000020AD
:1018A000B4000020940000204500002058000020D3
:1018B000460000205C00002047000020600000205F
:1018C0003400002020F001004FF080410882FE48E3
:1018D00000688047C5E04FF08040008A00F00200B9
:1018E00002282AD14007008A20F002004FF08041F0
:1018F0000882F6480078012802D1F5480068804740
:101900004FF08040008C10F0020F05D14FF0804066
:10191000808EF049088007E04FF08040808EED49CE
:101920000988401AEC4908804FF08040008C80F014
:1019300002004FF08041088493E04FF08040008A1D
:1019400000F0040004282AD10007008A20F00400D7
:101950004FF080410882DD480078012802D1DF483D
:10196000006880474FF08040008C10F0200F05D1B8
:101970004FF08040008FD749488007E04FF080400B
:10198000008FD4494988401AD34948804FF080409D
:10199000008C80F020004FF08041088461E04FF01F
:1019A0008040008A00F0080008282AD1C006008A7A
:1019B00020F008004FF080410882C94800780128D3
:1019C00002D1C848006880474FF08040008C10F476
:1019D000007F05D14FF08040808FBE49888007E0AE
:1019E0004FF08040808FBB498988401ABA4988806F
:1019F0004FF08040008C80F400704FF080410884EC
:101A00002FE04FF08040008A00F01000102828D10D
:101A10008006008A20F010004FF080410882B24812
:101A20000078012802D1B148006880474FF080401B
:101A3000008C10F4005F04D1AD480088A549C8802F
:101A400007E0AB480088A349C988A0EB0100A24980
:101A5000C8804FF08040008C80F400504FF08041EF
:101A6000088410BD10B5A348008800F001000128CB
:101A700010D1A048001F008800F00100012809D102
:101A80009C48008820F001009A4908809A48006824
:101A90008047BEE09748008800F00200022829D164
:101AA0009448008820F0020092490880934800780A
:101AB000012802D19248006880478E481030008883
:101AC00010F0020F05D18B48243000888D49088022
:101AD00007E08848243000888A490988401A8A49E2
:101AE000088084481030008880F00200814910315D
:101AF00008808EE07F48008800F00400042829D187
:101B00007C48008820F004007A4908807F480078EB
:101B1000012802D17E48006880477648103000884E
:101B200010F0200F05D1734828300088754948808F
:101B300007E070482830008872494988401A724985
:101B400048806C481030008880F0200069491031CE
:101B500008805EE06748008800F00800082829D166
:101B60006448008820F008006249088069480078CD
:101B7000012802D16848006880475E48103000881C
:101B800010F4007F05D15B482C3000885D498880C7
:101B900007E058482C3000885A498988401A5A4929
:101BA000888054481030008880F40070514910310A
:101BB00008802EE04F48008800F01000102828D13F
:101BC0004C48008820F010004A49088053480078AB
:101BD000012802D1524800688047464810300088EA
:101BE00010F4005F05D14348303000884549C88073
:101BF00007E04048303000884249C988401A4249CD
:101C0000C8803C481030008880F4005039491031B9
:101C1000088010BD10B54348008800F0010001287D
:101C200010D14048001F008800F00100012809D1B0
:101C30003C48008820F001003A4908803A48006892
:101C40008047FAE03748008800F00200022829D1D6
:101C50003448008820F00200324908803348007878
:101C6000012802D13248006880472E481030008891
:101C700010F0020F05D12B48243000882D49088030
:101C800007E02848243000882A490988401A2A4950
:101C9000088024481030008880F00200214910316B
:101CA0000880CAE01F48008800F00400042865D1BD
:101CB0001C48008820F004001A4908801F4800785A
:101CC000012841D11E483DE0380000204900002095
:101CD00064000020BC0000209C0000206800002060
:101CE0004A0000206C0000204B0000207000002003
:101CF00040000040100400403C0000204C00002048
:101D000074000020C4000020A40000204D0000202A
:101D1000780000204E0000207C0000204F000020B2
:101D200080000020100800404000002050000020EB
:101D300084000020CC000020AC00002051000020D6
:101D400088000020006880474E48008810F0200F6F
:101D500005D14C48183000884B49488007E0494875
:101D60001830008848494988401A48494880454801
:101D7000008880F02000434908805EE04148103828
:101D8000008800F00800082828D13E481038008854
:101D900020F008003B49103908803D4800780128B0
:101DA00002D13C48006880473648008810F4007F24
:101DB00005D134481C3000883349888007E0314819
:101DC0001C30008830498988401A304988802D4865
:101DD000008880F400702B4908802EE029481038D4
:101DE000008800F01000102827D1264810380088FD
:101DF00020F0100023491039088027480078012876
:101E000002D12648006880471E48008810F4005F11
:101E100005D11C48203000881B49C88007E01948BC
:101E2000203000881849C988401A1849C8801548C8
:101E3000008880F400501349088010BD10B5024698
:101E4000174B9A4204D14B1E164C34F8130017E07E
:101E5000B2F1804F04D14B1E134C34F813000FE045
:101E6000124B9A4204D14B1E114C34F8130007E078
:101E7000044B203B9A4203D14B1E044C34F8130010
:101E800010BD000020080040CC000020AC00002065
:101E9000520000208C000020530000209000002001
:101EA000002C0140940000209C0000200004004011
:101EB000A400002080EA010210B502F000434000B7
:101EC00022D04A001FD0010E01EB1261C0F3560070
:101ED000C2F3560240F4000042F40002A0FB0220CC
:101EE00000047F39140400D0401C50EA124001D491
:101EF0004000491EC2B20C0604EBD010401C400842
:101F0000802A02D003E0002010BD20F0010000294B
:101F100000DA0020184310BD30B480EA010202F05C
:101F2000004530F0004221F0004013D090B1C30DC5
:101F3000D40DC2F31601C0F31600E41A41F40001F7
:101F400040F400027D34914201D3641C00E049005A
:101F5000002C02DA30BC002070474FF40000002350
:101F6000914201D3891A034340084FEA4101F7D156
:101F700051B1914202D14FF0004105E002D24FF041
:101F8000010101E06FF0010103EBC450284430BCB3
:101F900000F051BA2DE9FE4F804681EA0300C00FE0
:101FA0000C46009021F0004123F00045B8EB020000
:101FB000A94105D24046214690461C460B460246A2
:101FC00023F00040104347D0270DC7F30A00C3F3A6
:101FD0000A510290401A019040286BDAC3F31300B3
:101FE00040F4801B0098924620B10023D2EB030AF4
:101FF00063EB0B0B01985946C0F14002504600F0CC
:10200000F9F906460D4650465946019A00F001FA84
:1020100010EB08006141002487EA115284EAE7735B
:102020001A4340D0009A62B3019A012A4FEA07523C
:1020300015DC001B61EB02014FF0004202EA07527F
:10204000CDE90042001C41F5801132462B4600F0DC
:1020500038FA03B0BDE8F08F40462146F9E7001B8F
:1020600061EB0201001C41F5801300185B41201850
:10207000A2F5001747EB030140EAD570B6196D4190
:1020800011E06D084FEA360645EAC0754FEA07527F
:10209000001B61EB0201001C41F5801149084FEA69
:1020A00030000019514132462B4603B0BDE8F04FD5
:1020B00000F0F8B90098012240000023D0EB0202A2
:1020C00063EBE073009821464FEAE074B8EB000040
:1020D00061EB0401E9E783F000435BE781F0004135
:1020E00058E72DE9FE4F81EA030404F0004421F093
:1020F000004100944FF0000B23F0004350EA01042C
:102100005ED052EA03045BD0C3F30A54C1F30A550C
:102110002C44A4F2F3340194A0FB0254C1F3130144
:1021200041F48011C3F3130343F4801301FB024411
:1021300000FB034E840A970A44EA815447EA835716
:10214000A4FB076802958D0A05FB07854FEA932CCF
:1021500004FB0C542705029D4FEA065847EA163740
:10216000B5EB08056EEB070C870E920E47EA811758
:1021700042EA8312A7FB0201B6EB0B0164EB0004F9
:102180002B0D43EA0C335E1844EB1C50DA465146E3
:10219000E7FB0201C5F313044FEA0B3343EA145380
:1021A0004FEA0432019C43EA0603A4F10C040294B2
:1021B000009CCDE900B400F084F903B0BDE8F08FD5
:1021C00000200146F9E72DE9F04D81EA030404F00F
:1021D000004B21F0004514464FF0000A23F0004167
:1021E00050EA050220D054EA01021DD0C5F30A5777
:1021F0000246C5F31303C1F31300C1F30A5640F4BA
:10220000801543F48013A7EB0608101BD64608F28E
:10221000FD3873EB050002D308F1010801E09218C4
:102220005B41B8F1000F03DA00200146BDE8F08DF4
:1022300000204FF48011064684460EE0171B73EB16
:10224000050705D3121B63EB050306434CEA010C9B
:1022500049084FEA300092185B4150EA0107EDD17E
:1022600052EA030012D082EA040083EA050108431F
:1022700005D0101BAB4106D20122002306E000224C
:102280004FF0004302E06FF0010253101AEB06001A
:102290004CEB085110EB0A0041EB0B01BDE8F04D8F
:1022A00000F000B9C10F80EAE0700844CA07962325
:1022B000002100F0C9B896230022114600F0C4B8EE
:1022C0000EB540F2334102910021CDE900110A46DA
:1022D0000B4600F0F6F803B000BD00F0004220F01D
:1022E0000040C10DC0F3160040F400007F2901DA60
:1022F00000207047962903DCC1F19601C84001E037
:1023000096398840002AF4D04042704720F00040BF
:10231000C10DC0F3160040F400007F2901DA00204F
:102320007047962903DCC1F19601C8407047963981
:102330008840704700F0004230F000400AD0C10DE4
:1023400001F56071C0F3160042EA0151C20840076E
:1023500011437047002001467047000030B5041E4D
:1023600071F1000404DB4FF00044404264EB0101D2
:10237000141E73F1000405DB1C464FF0004352426B
:1023800063EB04038B4208BF824230BD30B5041EAC
:1023900071F1000404DB4FF00044404264EB0101A2
:1023A000141E73F1000405DB1C464FF0004352423B
:1023B00063EB0403994208BF904230BD01F0004333
:1023C00030B421F0004150EA010206D00A0DA2F516
:1023D0006072C1F31301002A02DC30BC0020704798
:1023E000440F44EAC104C100E01830BC00EBC25005
:1023F00000F021B8202A04DB203A00FA02F1002084
:1024000070479140C2F1200320FA03F31943904032
:102410007047202A06DBCB17203A41FA02F043EA44
:10242000E07306E041FA02F3D040C2F1200291408D
:102430000843194670470029A8BF7047401C49004F
:1024400008BF20F00100704710B4B0FA80FC00FA19
:102450000CF050EA010404BF10BC704749B1CCF144
:10246000200421FA04F411FA0CF118BF01212143D0
:102470000843A3EB0C01CB1D4FEA00614FEA10208B
:1024800042BF002010BC704700EBC350104400292D
:10249000A4BF10BC7047401C490008BF20F00100D9
:1024A00010BC704710B5141E73F1000408DA401C0C
:1024B00041F1000192185B411A4301D120F0010063
:1024C00010BD2DE9F04D92469B4611B1B1FA81F253
:1024D00002E0B0FA80F220329046FFF78BFF04460C
:1024E0000F4640EA0A0041EA0B0153465A460843A8
:1024F00013D0114653EA010019D0C8F140025046EA
:1025000000F040F805460E46504659464246FFF751
:1025100071FF084305D0012004E020463946BDE89C
:10252000F08D0020054346EAE0762C4337430A98B5
:102530006305E40AA0EB08000022FD0A44EA4754C0
:102540000A3002D500200146E9E70105101969416A
:10255000DDE9084500196941BDE8F04DA2E700003A
:10256000064C074D06E0E06840F0010394E80700E0
:1025700098471034AC42F6D3FDF7BCFD782700082D
:1025800098270008202A04DB203A21FA02F00021D3
:10259000704721FA02F3D040C2F120029140084373
:1025A00019467047F0B44FF0000C1949194A4FF022
:1025B00000034FF000060CFB00F505F03F0531F974
:1025C000154032F91C3003FB04F73E440CF1010CBA
:1025D000BCF1400FEFD1FFD03046F0BC704700B5E2
:1025E00070B40B4A03B4FFF7DDFF80FB005403BC5B
:1025F000094A10B4FFF7D6FF4FF0000680FB0063D6
:1026000003EB040010BC70BC5DF804EB70470000E5
:1026100018280008982700089828000802E008C831
:10262000121F08C1002AFAD170477047002001E04C
:1026300001C1121F002AFBD170470000002407E0EF
:1026400022492046FFF7CBFF214941F82400641CB2
:10265000402CF5DBFEF7C8F80023692202211D4853
:10266000FEF72EF900236F2201211B48FEF728F9FF
:1026700000236F220E211848FEF722F9482117483F
:10268000FDF73FFE02211548FDF7B7FEE1220321C9
:102690001248FDF749FF12490020FEF705F81148DE
:1026A0000068FEF757FA10490320FEF7C9F94FF00A
:1026B000E020006940F001004FF0E0210861084689
:1026C000006940F00200086100BFFEE7982700089B
:1026D0005401002000080140000C0140002401408A
:1026E000D400002004000020ED26000810B5402092
:1026F000FEF700F8FEF717F81848806820F0010090
:1027000016498860002425E0154951F82400154930
:10271000FFF765FF144941F82400084650F82400EB
:102720001249096888420BDB114850F82400401C0C
:102730000F4941F824004FF480400E49086008E03A
:1027400000200B4941F824004FF480400949091D3D
:102750000860641C062CD7DB10BD0000000002409E
:1027600008000020D40000206C020020000000209F
:1027700054020020100C014018290008000000201D
:10278000D40000001C260008EC290008D40000201A
:10279000B40500002C260008A80D2F0EA70E0E0F62
:1027A000640FA80FD90FF60FFF0FF60FD90FA80F60
:1027B000640F0E0FA70E2F0EA80D130D720CC50B74
:1027C000100B530A9009C908000837077006AD05B9
:1027D000F0043B048E03ED025802D1015901F200CE
:1027E0009C00580027000A0000000A00270058003B
:1027F0009C00F2005901D1015802ED028E033B0406
:10280000F004AD05700637070008C9089009530A9F
:10281000100BC50B720C130DFF7F627F8A7D7D7AD2
:102820004276E3706E6AF262825A34511D47573C19
:10283000FC302825F9188C0C000074F307E7D8DA6F
:1028400004CFA9C3E3B8CCAE7EA50E9D92951D8F93
:10285000BE89838576829E8000809E807682838575
:10286000BE891D8F92950E9D7EA5CCAEE3B8A9C3FF
:1028700004CFD8DA07E774F300008C0CF918282588
:10288000FC30573C1D473451825AF2626E6AE37045
:1028900042767D7A8A7D627F00008C0CF9182825AB
:1028A000FC30573C1D473451825AF2626E6AE37025
:1028B00042767D7A8A7D627FFF7F627F8A7D7D7A24
:1028C0004276E3706E6AF262825A34511D47573C79
:1028D000FC302825F9188C0C000074F307E7D8DACF
:1028E00004CFA9C3E3B8CCAE7EA50E9D92951D8FF3
:1028F000BE89838576829E8000809E8076828385D5
:10290000BE891D8F92950E9D7EA5CCAEE3B8A9C35E
:1029100004CFD8DA07E774F300040F00407E050007
:10292000110000001200000013000000140000005D
:102930001700000018000000000000000000000068
:102940000000000000000000000000000000000087
:102950000000000000000000000000000000000077
:102960000000000000000000000000000000000067
:102970000000000000000000000000000000000057
:102980000000000000000000000000000000000047
:102990000000000000000000000000000000000037
:1029A0000000000000000000000000000000000027
:1029B0000000000000000000000000000000000017
:1029C0000000000000000000000000000000000007
:1029D00000000000000000000000000000000000F7
:0C29E000000000000000000000000000EB
:04000005080000ED02
:00000001FF
