:020000040800F2
:100000000004002001010008250100082701000864
:10001000290100082B0100082D0100080000000044
:100020000000000000000000000000002F01000898
:10003000310100080000000033010008350100080C
:1000400037010008370100083701000837010008B0
:1000500037010008370100083701000837010008A0
:100060003701000837010008370100083701000890
:100070003701000837010008370100083701000880
:100080003701000837010008370100083701000870
:100090003701000837010008370100083701000860
:1000A0003701000837010008370100083701000850
:1000B0003701000837010008370100083701000840
:1000C0003701000837010008370100083701000830
:1000D0003701000837010008370100083701000820
:1000E000370100083701000837010008DFF80CD09D
:1000F00000F02CF8004800478F01000800040020A1
:100100000D488047DFF83400016841F4E0210160C8
:10011000BFF34F8FDFF82800DFF8281001600A488E
:1001200000477047FEE7FEE7FEE7FEE7FEE7FEE773
:10013000FEE7FEE7FEE7FEE72301000824ED00E00E
:100140000CED00E00003FA05ED000008064C074D39
:1001500006E0E06840F0010394E807009847103497
:10016000AC42F6D3FFF7C6FFE4010008F401000833
:1001700002E008C8121F08C1002AFAD17047704770
:10018000002001E001C1121F002AFBD170470020AE
:1001900000F016F806463746002401250BE02846F5
:1001A00000F00EF80446BC4201DD274602E0B442EE
:1001B00000DA26466D1C402DF1DB00BFFEE7000093
:1001C000064931F91010064A32F9102081FB01432B
:1001D00082FB026506EB040070470000F401000892
:1001E00074020008F402000800000020000400006F
:1001F00080010008FF7F627F8A7D7D7A4276E3700E
:100200006E6AF262825A34511D47573CFC302825F1
:10021000F9188C0C000074F307E7D8DA04CFA9C3EF
:10022000E3B8CCAE7EA50E9D92951D8FBE898385C9
:1002300076829E8000809E8076828385BE891D8F17
:1002400092950E9D7EA5CCAEE3B8A9C304CFD8DAB3
:1002500007E774F300008C0CF9182825FC30573C94
:100260001D473451825AF2626E6AE37042767D7A9B
:100270008A7D627F00008C0CF9182825FC30573CE1
:100280001D473451825AF2626E6AE37042767D7A7B
:100290008A7D627FFF7F627F8A7D7D7A4276E3700E
:1002A0006E6AF262825A34511D47573CFC30282551
:1002B000F9188C0C000074F307E7D8DA04CFA9C34F
:1002C000E3B8CCAE7EA50E9D92951D8FBE89838529
:1002D00076829E8000809E8076828385BE891D8F77
:1002E00092950E9D7EA5CCAEE3B8A9C304CFD8DA13
:0402F00007E774F3B5
:04000005080000ED02
:00000001FF
